:1000000012C019C018C017C016C015C014C013C044
:1000100012C04CC010C00FC00EC00DC00CC00BC031
:100020000AC009C008C011241FBECFE5D4E0DEBF5E
:10003000CDBF02D0A9C0E4CFDF93CF93CDB7DEB759
:1000400003D01ED07894FFCFDF93CF93CDB7DEB728
:10005000A7E3B0E0E7E3F0E0808180648C93A3E560
:10006000B0E0E3E5F0E0808185608C93A9E5B0E045
:10007000E9E5F0E0808181608C93CF91DF91089574
:10008000DF93CF93CDB7DEB7E7E2F0E085EE808374
:10009000E6E2F0E087EC8083A7E3B0E0E7E3F0E09E
:1000A00080818E618C93CF91DF9108951F920F9282
:1000B0000FB60F9211248F939F93AF93BF93EF933B
:1000C000FF93DF93CF93CDB7DEB7A8E3B0E0E8E3CB
:1000D000F0E0908180E489278C93E5E2F0E0808174
:1000E000863740F0A8E3B0E0E8E3F0E080818E617D
:1000F0008C9336C0E5E2F0E08081813778F0A8E3A8
:10010000B0E0E8E3F0E080818E608C93A8E3B0E09B
:10011000E8E3F0E080818F7E8C9322C0E5E2F0E09E
:1001200080818D3678F0A8E3B0E0E8E3F0E08081EC
:1001300086608C93A8E3B0E0E8E3F0E08081877EFE
:100140008C930EC0A8E3B0E0E8E3F0E08081826029
:100150008C93A8E3B0E0E8E3F0E08081837E8C93A9
:10016000A6E2B0E0E6E2F0E0808180648C93CF917B
:10017000DF91FF91EF91BF91AF919F918F910F9080
:0C0180000FBE0F901F901895F894FFCF51
:00000001FF
