:1000000012C021C020C01FC01EC01DC01CC01BC00C
:100010001AC05CC118C0DEC116C015C014C013C020
:1000200012C011C010C011241FBECFE5D4E0DEBF46
:10003000CDBF10E0A0E6B0E001C01D92A136B1072F
:10004000E1F702D025C2DCCFDF93CF93CDB7DEB787
:1000500010926000BBD0D6D0EBD0789401D0FFCF07
:10006000DF93CF93CDB7DEB7A1E3B0E0E1E3F0E0FB
:100070008081806F8C93A2E3B0E0E2E3F0E08081C6
:100080008F708C93CF91DF910895DF93CF93CDB78D
:10009000DEB7A2E3B0E0E2E3F0E0808180648C931D
:1000A000A2E3B0E0E2E3F0E080818F778C93A2E3FB
:1000B000B0E0E2E3F0E0808180618C93A2E3B0E005
:1000C000E2E3F0E080818F7D8C93CF91DF91089502
:1000D000DF93CF93CDB7DEB7A2E3B0E0E2E3F0E089
:1000E00080818F7B8C93A2E3B0E0E2E3F0E080813B
:1000F00080688C93A2E3B0E0E2E3F0E080818F7E41
:100100008C93A2E3B0E0E2E3F0E0808180628C9324
:10011000CF91DF910895DF93CF93CDB7DEB7A2E300
:10012000B0E0E2E3F0E0808180648C93A2E3B0E091
:10013000E2E3F0E080818F778C93A2E3B0E0E2E32A
:10014000F0E080818F7E8C93A2E3B0E0E2E3F0E008
:10015000808180628C93CF91DF910895DF93CF935C
:10016000CDB7DEB7A2E3B0E0E2E3F0E080818F7BC1
:100170008C93A2E3B0E0E2E3F0E0808180688C93AE
:10018000A2E3B0E0E2E3F0E0808180618C93A2E33F
:10019000B0E0E2E3F0E080818F7D8C93CF91DF913E
:1001A0000895DF93CF93CDB7DEB7A8E3B0E0E8E3DF
:1001B000F0E080818E7F8C93A2E3B0E0E2E3F0E098
:1001C00080818F708C93CF91DF910895DF93CF93CF
:1001D000CDB7DEB7A7E3B0E0E7E3F0E0808180646D
:1001E0008C93A3E5B0E0E3E5F0E0808185608C933B
:1001F000A9E5B0E0E9E5F0E0808181608C93CF91E2
:10020000DF910895DF93CF93CDB7DEB7E7E2F0E05B
:1002100085EE8083E6E2F0E087EC8083A7E3B0E040
:10022000E7E3F0E080818E618C93CF91DF910895B8
:10023000DF93CF93CDB7DEB7E1E3F0E082E08083D8
:10024000E2E3F0E01082A7E3B0E0E7E3F0E08081D2
:1002500081608C93E9E2F0E08CE08083E0E4F0E000
:100260001082EBE2F0E082E08083EAE2F0E088E9ED
:100270008083E0E4F0E086E88083CF91DF91089509
:10028000DF93CF930F92CDB7DEB78983EBE2F0E037
:100290008081882F90E0807290700097B9F3ECE233
:1002A000F0E0898180830F90CF91DF910895DF93F3
:1002B000CF93CDB7DEB7EBE2F0E080818823DCF7A7
:1002C000ECE2F0E08081CF91DF9108951F920F92D0
:1002D0000FB60F9211242F933F934F935F936F9319
:1002E0007F938F939F93AF93BF93EF93FF93DF938E
:1002F000CF93CDB7DEB780916000833008F051DF37
:10030000809160008F5F80936000A8E3B0E0E8E335
:10031000F0E0908180E489278C93E5E2F0E0808131
:10032000863740F0A8E3B0E0E8E3F0E080818E613A
:100330008C9336C0E5E2F0E08081813778F0A8E365
:10034000B0E0E8E3F0E080818E608C93A8E3B0E059
:10035000E8E3F0E080818F7E8C9322C0E5E2F0E05C
:1003600080818D3678F0A8E3B0E0E8E3F0E08081AA
:1003700086608C93A8E3B0E0E8E3F0E08081877EBC
:100380008C930EC0A8E3B0E0E8E3F0E080818260E7
:100390008C93A8E3B0E0E8E3F0E08081837E8C9367
:1003A000A6E2B0E0E6E2F0E0808180648C93CF9139
:1003B000DF91FF91EF91BF91AF919F918F917F91CD
:1003C0006F915F914F913F912F910F900FBE0F90C2
:1003D0001F9018951F920F920FB60F9211242F9312
:1003E0003F934F935F936F937F938F939F93AF93BD
:1003F000BF93EF93FF93DF93CF9300D00F92CDB7CE
:10040000DEB7A8E3B0E0E8E3F0E0808181608C93A0
:100410004EDF89838981282F30E03B832A838A81BC
:100420009B8184349105D9F02A813B8125343105A3
:1004300034F48A819B818134910579F012C02A813C
:100440003B812335310539F08A819B8187359105C0
:1004500041F41BDE07C03CDE05C05DDE03C07EDE6E
:1004600001C09FDE0F900F900F90CF91DF91FF9111
:10047000EF91BF91AF919F918F917F916F915F911C
:100480004F913F912F910F900FBE0F901F90189595
:04049000F894FFCF0E
:00000001FF
